:100000000C9434000C9449000C9449000C94490061
:100010000C9449000C9449000C9449000C9449003C
:100020000C9449000C9449000C9449000C9449002C
:100030000C9449000C9449000C9449000C9449001C
:100040000C9449000C9449000C9449000C9449000C
:100050000C9449000C9449000C9449000C944900FC
:100060000C9449000C94490011241FBECFEFD8E036
:10007000DEBFCDBF11E0A0E0B1E0EEECF2E002C0E7
:1000800005900D92A435B107D9F70E945D000C943C
:1000900065010C940000AC0148535F4FFC012191B5
:1000A000CF01222349F03091C00035FFFCCF2093CF
:1000B000C6008417950791F7089584B7A89584B76B
:1000C000877F84BF80916000886180936000109278
:1000D000600080917C00806480937C008EEF93E0D0
:1000E0000E944901C82F80EF8C0F803E40F48FEFB3
:1000F00093E00E944901C81302C0C09366008FE3D9
:1001000084B98FE087B98CEF8AB95E9A289A2B9AC6
:100110002D9A409A5F9A2A9A2C9A5B985D985C98DF
:1001200029985A9843984298419885B78F7E85BF01
:1001300087B18F7C87B988B1806388B91092C1007C
:100140001092C50080E18093C40082E08093C000DB
:1001500088E18093C10086E08093C20085E090E052
:1001600022EB35E026BD35BDA89BFECFA89A15BC75
:10017000A8950197B9F78AEF93E00E944901811190
:1001800011C06FEF8AEF93E00E94510180E091E08F
:100190000E944B0081E090E02091C00027FD05C047
:1001A000A895FACF8AE491E0F3CFE091C6009111CF
:1001B00018C05B985D985C9829985A984398429823
:1001C00041985E9A289A2B9A2D9A409A5F9A2A9A79
:1001D0002C9A823009F431C00CF026C0813009F429
:1001E0002EC09F5FE156EA31B8F6F0E0E650FF4FCF
:1001F0000C945F01210123012501270129012B0115
:100200002D01CC00CC00CC00CC00CC00CC00CC002C
:10021000CC00CC00CC00CC00CC00CC00CC00CC007E
:10022000CC002F01CC003E01833029F0843009F04E
:10023000D8CF419AD6CF429AD4CF439AD2CF5A9AA6
:10024000D0CF5E98A9CF2898A7CF2B98A5CF2D986F
:10025000A3CF4098A1CF5F989FCF2A989DCF8F5F63
:1002600085300CF498CF88E199E00FB6F894A89502
:10027000809360000FBE90936000FFCF88E199E00B
:100280000FB6F894A895809360000FBE909360001D
:10029000FFCFF999FECF92BD81BDF89A992780B51D
:1002A0000895262FF999FECF1FBA92BD81BD20BDBA
:1002B0000FB6F894FA9AF99A0FBE01960895EE0FC8
:0E02C000FF1F0590F491E02D0994F894FFCFF4
:1002CE000D0A5072657373206B6579206120746F0F
:1002DE00206720287820666F72206E6578742064FF
:1002EE0069676974292E0D0A507265737320277A17
:1002FE002720746F20636C656172207468652064BA
:10030E006973706C61792E0D0A00416761696E2008
:04031E003F0D0A0085
:00000001FF
