:100000000C9434000C9449000C9449000C94490061
:100010000C9449000C9449000C9449000C9449003C
:100020000C9449000C9449000C9449000C9449002C
:100030000C9449000C9449000C9449000C9449001C
:100040000C9449000C9449000C9449000C9449000C
:100050000C9449000C9449000C9449000C944900FC
:100060000C9449000C94490011241FBECFEFD8E036
:10007000DEBFCDBF11E0A0E0B1E0E0EAF3E002C0F6
:1000800005900D92A234B107D9F70E944B000C9451
:10009000CE010C940000CF93DF93CDB7DEB7299744
:1000A0000FB6F894DEBF0FBECDBF89E0E9E3F1E003
:1000B000DE01119601900D928A95E1F784B7A8951B
:1000C00084B7877F84BF80916000886180936000DF
:1000D0001092600004B600FE03C084B78E7F84BF18
:1000E00080917C00806480937C008EEF93E00E947E
:1000F0009801182F80EF810F803E40F48FEF93E03E
:100100000E949801181302C0109366008FE384B90F
:100110008FE087B98CEF8AB95E9A289A2B9A2D9A2C
:10012000409A5F9A2A9A2C9A5B985D985C982998D5
:100130005A9843984298419885B78F7E85BF87B17A
:100140008F7C87B988B1806388B91092C100109202
:10015000C50080E18093C40082E08093C00088E104
:100160008093C10086E08093C20085E090E022EB9E
:1001700035E026BD35BDA89BFECFA89A15BCA89535
:100180000197B9F7EE24E394F12CEC0EFD1E88E004
:10019000E80EF11C9AE0C92ED12C90E080E08E018F
:1001A0000F5F1F4FD80130E020E05B985D985C98AE
:1001B00029985A984398429841985E9A289A2B9A7F
:1001C0002D9A409A5F9A2A9A2C9A6D91A9014F5FB5
:1001D0005F4FF9013197E730F10558F4EE50FF4FCA
:1001E0000C94B401100112011401160118011A0136
:1001F0001C01299AE0EDE60FEA3008F053C00E2EFC
:10020000000CFF0BEA5FFE4F0C94B40160011E016D
:1002100063013D0140014301460149014C014F0189
:100220005C9AE8CF5D9AE6CF5B9AE4CF419AE2CF41
:10023000429AE0CF439ADECF5A9ADCCF85E191E033
:10024000E7ECF0E03197F1F700C000009C01F90104
:1002500061919F01EFE9E60FE73008F045C00E2EEF
:10026000000CFF0BEA5CFE4F0C94B40166016801C0
:100270006A016C016E01700172018EE191E0E0CFC4
:1002800084E291E0DDCF89E291E0DACF8FE291E084
:10029000D7CF85E391E0D4CF80E091E0D1CF88E063
:1002A00091E0CECF6111CCCFEFEBF2E13197F1F7D6
:1002B00000C000002F5F3F4F28303105A9F721C053
:1002C0008EE091E0BDCF88E191E0BACF5E98BFCFDC
:1002D0002898BDCF2B98BBCF2D98B9CF4098B7CFDA
:1002E0005F98B5CF2A98B3CF6111B1CFE7EFF1E1B5
:1002F0003197F1F700C000009A014830510509F02C
:1003000054CF2091C00027FF4ACF8091C600F8014A
:1003100081918F013197082E000C990B8F97B601B0
:100320000E94A001805D8083E016F10681F735CF41
:10033000F999FECF92BD81BDF89A992780B50895AD
:1003400097FB072E16F4009407D077FD09D00E9482
:10035000BA0107FC05D03EF4909581959F4F089512
:10036000709561957F4F0895EE0FFF1F0590F491F2
:10037000E02D0994AA1BBB1B51E107C0AA1FBB1F9C
:10038000A617B70710F0A61BB70B881F991F5A9521
:10039000A9F780959095BC01CD010895F894FFCF01
:1003A00061626364656667006761626366006162DB
:1003B0006364656600626300616264656700616230
:1003C0006364670062636667006163646667006711
:1003D00063646566006263610038373635343332F2
:0203E0003100EA
:00000001FF
