:100000000C9434000C943E000C943E000C943E0082
:100010000C943E000C943E000C943E000C943E0068
:100020000C943E000C943E000C943E000C943E0058
:100030000C943E000C943E000C943E000C943E0048
:100040000C943E000C943E000C943E000C943E0038
:100050000C943E000C943E000C943E000C943E0028
:100060000C943E000C943E0011241FBECFEFD8E04C
:10007000DEBFCDBF0E9440000C949D010C94000097
:10008000CF93DF93CDB7DEB760970FB6F894DEBF9E
:100090000FBECDBF84B7A89584B7877F84BF8091FA
:1000A00060008861809360001092600080917C0005
:1000B000806480937C008EEF93E00E948F0189839F
:1000C0008051803E48F48FEF93E00E948F01498178
:1000D000481302C0409366008DE384B98FE087B96E
:1000E00084EC8AB95E9A289A2B9A2D9A409A5F9A44
:1000F0002A9A2C9A5A9843984298419885B78F7EAD
:1001000085BF87B18F7C87B988B1806388B98AB190
:10011000877C8AB98BB188638BB92198299A109210
:10012000C1001092C50080E18093C40082E08093FA
:10013000C00088E18093C10086E08093C20085E022
:1001400090E022EB35E026BD35BDA89BFECFA89AF6
:1001500015BCA8950197B9F768E070E080E890E0D9
:1001600021E030E0A3E0B0E0A901407855275A83B0
:100170004983AC01407855275C834B83A9014074C7
:1001800055275E834D83AC014074552758874F83B4
:10019000A901407255275A874987AC0140725527FB
:1001A0005C874B87A901407155275E874D871C01ED
:1001B00050E1252233242901E8E04E2255243C0158
:1001C000F8E06F227724490144E0842299245C01FD
:1001D00054E0A522BB24A90142705527588B4F87B4
:1001E000A89550E040E08C01027011277901E1E010
:1001F000EE22FF246C01F1E0CF22DD2448305105CE
:10020000B8F4FA01EA5FFE4F0C9497010E013B012E
:10021000470151015C01680175018201E114F1049B
:1002200011F0419A2898C114D10411F0419A2B98E9
:10023000E7EBFBE03197F1F700C000005E9A289AE7
:100240002B9A2D9A409A5F9A2A9A2C9A5A984398F8
:10025000429841984F5F5F4F4031510579F61197B1
:1002600009F0BECF220F331F969587956150710913
:1002700009F078CF71CFEF85F889EF2B11F0419A13
:100280005F9801151105A1F2419A4098D1CF8114D0
:10029000910411F0429A2898A114B10449F2429AAB
:1002A000C6CF4114510411F0429A5F986114710451
:1002B00009F4BECF429AE9CFED85FE85EF2B11F010
:1002C000439A28982114310409F4B2CF439AAFCF4E
:1002D000E985FA85EF2B11F0439A5F98EB85FC8551
:1002E000EF2B09F4A5CF439AD0CFED81FE81EF2B00
:1002F00011F05A9A2898EF81F885EF2B09F498CFDE
:100300005A9A95CFE981FA81EF2B11F05A9A5F98AA
:10031000EB81FC81EF2B09F48BCF5A9AB6CFF99978
:10032000FECF92BD81BDF89A992780B50895EE0F52
:0E033000FF1F0590F491E02D0994F894FFCF83
:00000001FF
