:100000000C9434000C943E000C943E000C943E0082
:100010000C943E000C943E000C943E000C943E0068
:100020000C943E000C943E000C943E000C943E0058
:100030000C943E000C943E000C943E000C943E0048
:100040000C943E000C943E000C943E000C943E0038
:100050000C943E000C943E000C943E000C943E0028
:100060000C943E000C943E0011241FBECFEFD8E04C
:10007000DEBFCDBF0E9495000C9412020C940000CC
:10008000EF92FF920F931F93CF93DF938B01FB01AE
:10009000D081D11112C0009781F48CEF93E00E94BF
:1000A000F601C82F8BEF93E00E94F6012C2F30E071
:1000B000322F2227820F932F911D7C01F694E79413
:1000C0009C013695279536952795AC0163E05695AA
:1000D00047956A95E1F7242735272827392775E0C2
:1000E000969587957A95E1F78227932799278695A4
:1000F00097958827E82AF92ADF5FF801D083DF3F48
:1001000061F46F2D8CEF93E00E94FE016E2D8BEF5A
:1001100093E00E94FE01F8011082C701DF91CF91A8
:100120001F910F91FF90EF900895CF93DF93CDB77C
:10013000DEB72F970FB6F894DEBF0FBECDBF84B7E2
:10014000A89584B7877F84BF809160008861809381
:1001500060001092600080917C00806480937C003D
:100160008EEF93E00E94F601182F80EF810F803E02
:1001700040F48FEF93E00E94F601181302C0109331
:1001800066008DE384B98FE087B984EC8AB95E9A02
:10019000289A2B9A2D9A409A5F9A2A9A2C9A5A98C2
:1001A00043984298419885B78F7E85BF87B18F7CF1
:1001B00087B988B1806388B98AB1877C8AB98BB1E5
:1001C00088638BB92198299A1092C1001092C500BA
:1001D00080E18093C40082E08093C00088E1809336
:1001E000C10086E08093C20085E090E022EB35E01C
:1001F00026BD35BDA89BFECFA89A15BCA895019732
:10020000B9F788E199E00FB6F894A895809360005B
:100210000FBE909360001982BE016F5F7F4F90E028
:1002200080E00E944000DC01BE016F5F7F4FCD0186
:100230000E944000DC01BC0161707727CB01019670
:100240009D0102C0220F331F8A95E2F7C90146E0E3
:1002500050E09D01207833273B832A839C0120783E
:1002600033273D832C839D01207433273F832E83C6
:100270009C0120743327398728879D0120723327FA
:100280003B872A871C0130E2232233242D01E0E141
:100290004E2255243C01F0E16F2277244D0128E0E5
:1002A000822299249C01287033273D872C879D0149
:1002B000247033273F872E878C01047011277D011E
:1002C00032E0E322FF24A89530E020E06C01E2E078
:1002D000CE22DD245C01F1E0AF22BB2428303105C1
:1002E000B8F4F901EA58FE4F0C940C027E01A40107
:1002F000AF01BA01C501D001DC01E9016115710549
:1003000011F0419A2898A114B10411F0419A2B9848
:10031000E7EBFBE03197F1F700C000005E9A289A06
:100320002B9A2D9A409A5F9A2A9A2C9A5A98439817
:10033000429841982F5F3F4F2031310579F6415067
:10034000510909F0C0CF70CFE114F10411F0419AC6
:100350005F98C114D104E1F2419A4098D9CFEE855B
:10036000FF85EF2B11F0429A28980115110581F2B3
:10037000429ACDCF8114910411F0429A5F98EC8596
:10038000FD85EF2B29F2429AE8CF4114510411F078
:10039000439A28986114710409F4BACF439AB7CFED
:1003A000EA85FB85EF2B11F0439A5F982114310405
:1003B00009F4AECF439AD1CFEE81FF81EF2B11F03C
:1003C0005A9A2898E885F985EF2B09F4A1CF5A9A13
:1003D0009ECFEA81FB81EF2B11F05A9A5F98EC8156
:1003E000FD81EF2B09F494CF5A9AB7CFF999FECF3C
:1003F00092BD81BDF89A992780B50895262FF99965
:10040000FECF1FBA92BD81BD20BD0FB6F894FA9AF7
:10041000F99A0FBE01960895EE0FFF1F0590F49113
:08042000E02D0994F894FFCFD0
:00000001FF
