:100000000C9434000C9449000C9449000C94490061
:100010000C9449000C9449000C9449000C9449003C
:100020000C9449000C9449000C9449000C9449002C
:100030000C9449000C9449000C9449000C9449001C
:100040000C9449000C9449000C9449000C9449000C
:100050000C9449000C9449000C9449000C944900FC
:100060000C9449000C94490011241FBECFEFD8E036
:10007000DEBFCDBF11E0A0E0B1E0E6E9F3E002C0F1
:1000800005900D92AC31B107D9F70E9467000C942E
:10009000C9010C9400009091C00095FFFCCF8093A3
:1000A000C60008950F931F93CF93DF93EC018C014B
:1000B00008531F4F8991882329F00E944B00C017D5
:1000C000D107C1F7DF91CF911F910F910895CF9381
:1000D000DF93CDB7DEB768970FB6F894DEBF0FBEDB
:1000E000CDBF84B7A89584B7877F84BF8091600017
:1000F0008861809360001092600080917C00806431
:1001000080937C008EEF93E00E945801182F80EFBF
:10011000810F803E40F48FEF93E00E945801181346
:1001200002C0109366008FE384B98FE087B98CEF2B
:100130008AB95E9A289A2B9A2D9A409A5F9A2A9A9F
:100140002C9A5B985D985C9829985A9843984298A5
:10015000419885B78F7E85BF3D98459A8AB1877C47
:100160008AB98BB188638BB92198299A1092C10002
:100170001092C50080E18093C40082E08093C000AB
:1001800088E18093C10086E08093C2008AE090E01D
:1001900022EB35E026BD35BDA89BFECFA89A15BC45
:1001A000A8950197B9F78AEF93E00E945801811151
:1001B00009C06FEF8AEF93E00E94600180E091E058
:1001C0000E9452008E01035F1F4F78018091C00092
:1001D00087FD02C0A895FACF8091C600F8018D3046
:1001E00029F081938F010E944B00F0CF108289E0AB
:1001F0000E944B00F70160E070E0CB0111911123E8
:10020000A1F0AAE0B0E09B01AC010E948D01012F9A
:10021000110F110B220B330B600F711F821F931FE5
:100220006053710981099109E9CF22E030E040E093
:1002300050E00E946E01CA01B9019E012F5F3F4F3D
:100240007901690110E000E02AE0822E912CA12CB6
:10025000B12C0F5F1F4FA50194010E946E01605DDC
:10026000F60161936F01B901CA0116161706180647
:1002700019067CF30E0D1F1DF8011082F801829102
:100280008F010E944B000E151F05C1F780E20E94EE
:100290004B0089E191E00E94520088E199E00FB69D
:1002A000F894A895809360000FBE90936000FFCFF4
:1002B000F999FECF92BD81BDF89A992780B508952E
:1002C000262FF999FECF1FBA92BD81BD20BD0FB672
:1002D000F894FA9AF99A0FBE01960895052E97FBA5
:1002E0001EF400940E94850157FD07D00E949801DA
:1002F00007FC03D04EF40C94850150954095309541
:1003000021953F4F4F4F5F4F089590958095709581
:1003100061957F4F8F4F9F4F08950E94BA01A59F0F
:10032000900DB49F900DA49F800D911D11240895F0
:10033000A1E21A2EAA1BBB1BFD010DC0AA1FBB1FE9
:10034000EE1FFF1FA217B307E407F50720F0A21B5B
:10035000B30BE40BF50B661F771F881F991F1A94C8
:1003600069F760957095809590959B01AC01BD01F2
:10037000CF010895A29FB001B39FC001A39F700D4C
:10038000811D1124911DB29F700D811D1124911D9D
:060390000895F894FFCF70
:10039600456E746572206E756D6265727320617448
:0C03A600206B6579626F6172640D0A00C3
:00000001FF
