:100000000C9434000C9449000C9449000C94490061
:100010000C9449000C9449000C9449000C9449003C
:100020000C9449000C9449000C9449000C9449002C
:100030000C9449000C9449000C9449000C9449001C
:100040000C9449000C9449000C9449000C9449000C
:100050000C9449000C9449000C9449000C944900FC
:100060000C9449000C94490011241FBECFEFD8E036
:10007000DEBFCDBF11E0A0E0B1E0EAE9F2E002C0EE
:1000800005900D92A832B107D9F70E9467000C9431
:100090004B010C9400009091C00095FFFCCF809321
:1000A000C60008950F931F93CF93DF93EC018C014B
:1000B00008531F4F8991882329F00E944B00C017D5
:1000C000D107C1F7DF91CF911F910F910895CF9381
:1000D000DF93CDB7DEB72C970FB6F894DEBF0FBE17
:1000E000CDBF84B7A89584B7877F84BF8091600017
:1000F0008861809360001092600080917C00806431
:1001000080937C008EEF93E00E942901182F80EFEE
:10011000810F803E40F48FEF93E00E942901181375
:1001200002C0109366008FE384B98FE087B98CEF2B
:100130008AB95E9A289A2B9A2D9A409A5F9A2A9A9F
:100140002C9A5B985D985C9829985A9843984298A5
:10015000419885B78F7E85BF3D98459A8AB1877C47
:100160008AB98BB188638BB92198299A1092C10002
:100170001092C50080E18093C40082E08093C000AB
:1001800088E18093C10086E08093C2008AE090E01D
:1001900022EB35E026BD35BDA89BFECFA89A15BC45
:1001A000A8950197B9F780E091E00E94520084E29F
:1001B00091E00E94520032E0832E912CA12CB12CB0
:1001C0008E010F5F1F4F78018091C00087FD02C034
:1001D000A895FACF8091C600F8018D3029F081935F
:1001E0008F010E944B00F0CF1082F701C12CD12C5F
:1001F000760111911123A9F0AAE0B0E0A7019601C0
:100200000E943101C12E110FDD08EE08FF08C60E55
:10021000D71EE81EF91E80E3C81AD108E108F108CC
:10022000E8CFD501C401880F991FAA1FBB1F8C15E9
:100230009D05AE05BF0539F485E291E00E945200AC
:1002400046015701BDCF8FE30E944B007501640149
:10025000F7CFF999FECF92BD81BDF89A992780B565
:1002600008950E943C01A59F900DB49F900DA49FFE
:10027000800D911D11240895A29FB001B39FC0016C
:10028000A39F700D811D1124911DB29F700D811DC2
:0A0290001124911D0895F894FFCF8A
:10029A004D756C7469706C79206E756D626572202B
:1002AA006279203220616E6420656E7465722069FD
:0802BA00740D0A00320D0A0068
:00000001FF
