:100000000C9434000C9449000C9449000C94490061
:100010000C9449000C9449000C9449000C9449003C
:100020000C9449000C9449000C9449000C9449002C
:100030000C9449000C9449000C9449000C9449001C
:100040000C9449000C9449000C9449000C9449000C
:100050000C9449000C9449000C9449000C944900FC
:100060000C9449000C94490011241FBECFEFD8E036
:10007000DEBFCDBF11E0A0E0B1E0EAE7F3E002C0EF
:1000800005900D92A430B107D9F70E9452000C944C
:10009000BB010C9400009091C00095FFFCCF8093B1
:1000A000C60008952F923F924F925F926F927F9277
:1000B0008F929F92AF92BF92CF92DF92EF92FF9278
:1000C0000F931F93CF93DF93CDB7DEB72E970FB665
:1000D000F894DEBF0FBECDBF84B7A89584B7877FE5
:1000E00084BF8091600088618093600010926000FE
:1000F00080917C00806480937C008EEF93E00E946E
:100100005801182F80EF810F803E40F48FEF93E06D
:100110000E945801181302C0109366008DE384B941
:100120008FE087B984EC8AB95E9A289A2B9A2D9A27
:10013000409A5F9A2A9A2C9A5A98439842984198E2
:1001400085B78F7E85BF3D98459A8AB1877C8AB9ED
:100150008BB188638BB92198299A1092C1001092B3
:10016000C50080E18093C40082E08093C00088E1F4
:100170008093C10086E08093C2008AE090E022EB89
:1001800035E026BD35BDA89BFECFA89A15BCA89525
:100190000197B9F788E19BE00FB6F894A895809392
:1001A00060000FBE90936000359902C0A895FCCF07
:1001B00082E0882E912CA12CB12CC12CD12C76015F
:1001C000C394CE0101961C012AE0422E512C612CD1
:1001D000712C3E862D86C701B60110E000E00F5F4E
:1001E0001F4FA30192010E946001605DED85FE85B5
:1001F0006193FE87ED87B901CA0116161706180626
:1002000019066CF3020D131DF8011082F80182919A
:100210008F010E944B0020163106C1F780E20E9438
:100220004B0000E011E0F80181918F01882339F043
:100230000E944B0088EC91E080179107A1F7AAE09B
:10024000B0E0A70196010E947F0175016401C60E0E
:10025000D71EE81EF91E9FEF891A990AA90AB90A42
:10026000EBE08E169104A104B10409F0B2CF359BE6
:1002700002C0A895FCCF359BFECF81E090E02E9682
:100280000FB6F894DEBF0FBECDBFDF91CF911F91A7
:100290000F91FF90EF90DF90CF90BF90AF909F9025
:1002A0008F907F906F905F904F903F902F90089528
:1002B000F999FECF92BD81BDF89A992780B508952E
:1002C000052E97FB1EF400940E94770157FD07D07E
:1002D0000E948A0107FC03D04EF40C9477015095DC
:1002E0004095309521953F4F4F4F5F4F0895909522
:1002F0008095709561957F4F8F4F9F4F08950E9415
:10030000AC01A59F900DB49F900DA49F800D911DF1
:1003100011240895A1E21A2EAA1BBB1BFD010DC0DA
:10032000AA1FBB1FEE1FFF1FA217B307E407F507A5
:1003300020F0A21BB30BE40BF50B661F771F881F81
:10034000991F1A9469F760957095809590959B0117
:10035000AC01BD01CF010895A29FB001B39FC001C0
:10036000A39F700D811D1124911DB29F700D811DE1
:0A0370001124911D0895F894FFCFA9
:04037A000D0A000068
:00000001FF
