:100000000C9434000C9451000C9451000C94510049
:100010000C946F000C9451000C9451000C945100FE
:100020000C9451000C9451000C9451000C940B0151
:100030000C9451000C9451000C9451000C945100FC
:100040000C9451000C9451000C9451000C945100EC
:100050000C9451000C9451000C9451000C945100DC
:100060000C9451000C94510011241FBECFEFD8E026
:10007000DEBFCDBF11E0A0E0B1E0EAE1F9E002C0EF
:1000800005900D92A038B107D9F721E0A0E8B1E0C2
:1000900001C01D92A439B207E1F70E94EC010C9453
:1000A0008B040C9400009091C00095FFFCCF8093CE
:1000B000C60008950F931F93CF93DF93EC018C013B
:1000C00008531F4F8991882329F00E945300C017BD
:1000D000D107C1F7DF91CF911F910F9108951F9222
:1000E0000F920FB60F9211242F933F934F935F936C
:1000F0006F937F938F939F93AF93BF93CF93DF9330
:10010000EF93FF93349B02C0359972C0359933C089
:10011000809100019091010197FD01969595879539
:100120009093010180930001109285001092840049
:1001300020910001309101014DE7429FC001439F92
:10014000900D112490938900809388002FEF81EE09
:1001500094E0215080409040E1F700C00000809181
:10016000000190910101019731F484EF91E09093A7
:1001700001018093000134993BC08CEF93E00E9411
:10018000DC03C82FD0E09E0135952795359527953E
:10019000CE0143E0959587954A95E1F728272C27CE
:1001A000CE0154E0959587955A95E1F72827279534
:1001B00022272795D595C795C22B6C2F8CEF93E0FE
:1001C0000E94E403C770C0939301809193018778E4
:1001D00087FF03C08150886F8F5F809393012FEF5B
:1001E00080E792E0215080409040E1F700C000009D
:1001F000FF91EF91DF91CF91BF91AF919F918F913F
:100200007F916F915F914F913F912F910F900FBE12
:100210000F901F9018951F920F920FB60F921124F6
:100220005F936F937F938F939F93AF93BF93EF935E
:10023000FF9310928500109284005B985D985C9803
:1002400029985A98439842984198E0919101F091E9
:100250009201E830F10568F4E05DFE4F0C9435043E
:100260003801560158015A015C015E0160016201CA
:10027000299A5E9A289A2B9A2D9A409A5F9A2A9ADE
:100280002C9AE0919001EA3028F50E2E000CFF0B1D
:10029000E45BFE4F0C943504640181018401870105
:1002A0008A018D0190019301960199015C9AE1CF39
:1002B0005D9ADFCF5B9ADDCF419ADBCF429AD9CFEF
:1002C000439AD7CF5A9AD5CF82E091E090938F018D
:1002D00080938E01A0918E01B0918F018D91EFE9F5
:1002E000E80FE730B8F50E2E000CFF0BE658FE4F76
:1002F0000C9435049C019E01A001A201A401A60159
:10030000A80189E091E0E2CF8CE091E0DFCF82E1CB
:1003100091E0DCCF88E191E0D9CF8DE191E0D6CFBB
:1003200083E291E0D3CF89E291E0D0CF8DE291E0FA
:10033000CDCF85E391E0CACF5E98D0CF2898CECFBD
:100340002B98CCCF2D98CACF4098C8CF5F98C6CFF6
:100350002A98C4CF8111C2CF80918D01882319F0D2
:1003600081E080938C0180919001082E000C990B04
:1003700001966AE070E00E940204809390018091EF
:100380009101909192010196909392018093910135
:10039000809191019091920168E070E00E940204C6
:1003A000909392018093910180919101909192019B
:1003B000892B21F48091930180939001FF91EF911B
:1003C000BF91AF919F918F917F916F915F910F90AE
:1003D0000FBE0F901F901895CF93DF93CDB7DEB768
:1003E00028970FB6F894DEBF0FBECDBF84B7A8958F
:1003F00084B7877F84BF80916000886180936000AC
:100400001092600004B600FE03C084B78E7F84BFE4
:1004100080917C00806480937C008EEF93E00E944A
:10042000DC0389838051803E48F48FEF93E00E9483
:10043000DC032981281302C0209366008FE384B96E
:100440008FE087B98CEF8AB95E9A289A2B9A2D9AF9
:10045000409A5F9A2A9A2C9A5B985D985C982998A2
:100460005A9843984298419885B78F7E85BF87B147
:100470008F7C87B988B1806388B91092C1001092CF
:10048000C50080E18093C40082E08093C00088E1D1
:100490008093C10086E08093C20085E090E022EB6B
:1004A00035E026BD35BDA89BFECFA89A15BCA89502
:1004B0000197B9F78091680082608093680080910D
:1004C0006C00806180936C0080916C0080628093EE
:1004D0006C0004B600FE36C18BE391E00E945A0026
:1004E00090E080E022E330E04091C00047FD1AC177
:1004F0000196A89581344FE1940724F021503109E9
:1005000090E080E02115310579F7E6CF8091C600B3
:100510008D3011F081934AC1108251E050938D01CA
:1005200080E891E09A8389839C838B83EB81FC81B3
:100530008191FC83EB83882319F00E945300F6CF4E
:1005400089E00E94530080918C018823E1F310928E
:100550008C0110928D01E0E8F1E0812C912C540186
:1005600021912B832223B1F0AAE0B0E0A5019401F0
:100570000E943B043B81832E330F9908AA08BB08D5
:10058000860E971EA81EB91E40E3841A9108A10882
:10059000B108E6CF412C512C3201439454E085162A
:1005A0009104A104B104ECF092E0C92ED12CE12C0D
:1005B000F12C2601370181E0481A510861087108C1
:1005C000A7019601C701B6010E94F203861697069D
:1005D000A806B90634F09FEFC91AD90AE90AF90A40
:1005E000E8CFE0E8F1E011922CE831E02E173F0768
:1005F000D1F78901C301B2014BE050E05C834B832A
:100600002AE030E040E050E00E941604605DF8010E
:1006100062938F018B819C8101979C838B83B901AD
:10062000CA01611571058105910551F7EB81FC81C6
:10063000F7FD1BC0A0E8B1E021E030E08BE090E0E6
:100640008E1B9F0B821793075CF0EB81FC81E20FFE
:10065000F31FE058FE4F40814D932F5F3F4FF2CF85
:1006600080589E4F2EE2FC012083EB81E887ECE06E
:10067000FB81EF1B232D2F1B2F83A4E6B0E0A501E8
:1006800094010E943B046B837C838D839E834B018A
:100690005C01AAE0B0E0A30192010E943B04F62FA6
:1006A000C62ED72E7C01260137013FEFC31AD30A8D
:1006B000E30AF30AA7019601C701B6010E94F203FB
:1006C0002B813C814D815E812617370748075907EA
:1006D00054F7AE2F0E2E000CBB0BA058BE4F822D30
:1006E0008F1BC80ECC92EF5FFF81EF13C6CFE32DB7
:1006F000F885EF1B0E2E000CFF0BE058FE4F10820A
:10070000E981FA818191FA83E983882319F00E94B3
:100710005300F6CF82E491E00E945A008FE30E94DA
:10072000530042C08091C6008F7D823509F0D4CE3F
:1007300082E491E00E945A0060E08AEF91E00E941A
:10074000E40314BE8AEF91E00E94DC03811109C02A
:1007500085E491E00E945A006FEF8AEF91E00E94D9
:10076000E40310929201109291017894209100017B
:100770003091010110928500109284004DE7429F54
:10078000C001439F900D11249093890080938800AD
:1007900080916F00826080936F0083E0809381007E
:1007A00022E1322E3FE2232EE0E8F1E08091C0000A
:1007B00087FDACCEA895FACFF999FECF92BD81BD49
:1007C000F89A992780B50895262FF999FECF1FBA78
:1007D00092BD81BD20BD0FB6F894FA9AF99A0FBE6A
:1007E00001960895DB018F939F930E943B04BF9174
:1007F000AF91A29F800D911DA39F900DB29F900D70
:100800001124089597FB072E16F4009407D077FD66
:1008100009D00E94460407FC05D03EF490958195CE
:100820009F4F0895709561957F4F0895052E97FB12
:100830001EF400940E942D0457FD07D00E945A0414
:1008400007FC03D04EF40C942D0450954095309540
:1008500021953F4F4F4F5F4F08959095809570952C
:1008600061957F4F8F4F9F4F0895EE0FFF1F0590AB
:10087000F491E02D09940E947C04A59F900DB49FF3
:10088000900DA49F800D911D11240895AA1BBB1BE0
:1008900051E107C0AA1FBB1FA617B70710F0A61B80
:1008A000B70B881F991F5A95A9F780959095BC01A1
:1008B000CD010895A1E21A2EAA1BBB1BFD010DC09C
:1008C000AA1FBB1FEE1FFF1FA217B307E407F50700
:1008D00020F0A21BB30BE40BF50B661F771F881FDC
:1008E000991F1A9469F760957095809590959B0172
:1008F000AC01BD01CF010895A29FB001B39FC0011B
:10090000A39F700D811D1124911DB29F700D811D3B
:0A0910001124911D0895F894FFCF03
:10091A00F401616263646566006263006162646532
:10092A0067006162636467006263666700616364AB
:10093A00666700676364656600626361006162639B
:10094A006465666700676162636600523F20202023
:10095A0020000D0A000D0A546869732070726F67CF
:10096A0072616D2063616C63756C6174657320726A
:10097A006F6F74732E0D0A456E74657220696E74FA
:10098A0065676572206E756D6265720D0A3F0000BB
:00000001FF
