:100000000C9434000C9451000C9451000C94510049
:100010000C9451000C9451000C9451000C9451001C
:100020000C9451000C9451000C9451000C9451000C
:100030000C9451000C9451000C9451000C945100FC
:100040000C9451000C9451000C9451000C945100EC
:100050000C9451000C9451000C9451000C945100DC
:100060000C9451000C94510011241FBECFEFD8E026
:10007000DEBFCDBF11E0A0E0B1E0ECE7F6E002C0EA
:1000800005900D92AA36B107D9F721E0AAE6B1E0B2
:1000900001C01D92AB36B207E1F70E9451010C94EA
:1000A0003C030C940000AC0148535F4FFC012191CC
:1000B000CF01222349F03091C00035FFFCCF2093BF
:1000C000C6008417950791F7089530E020E040912D
:1000D000C00047FD0BC02F5F3F4FA89521344FE173
:1000E0003407ACF3019789F780E0089581E0089523
:1000F000CF93DF9330E020E0DC0150E040E05B98FC
:100100005D985C9829985A984398429841985E9ACD
:10011000289A2B9A2D9A409A5F9A2A9A2C9ACD91D6
:10012000BA016F5F7F4FFA013197E730F10558F45C
:10013000E456FF4F0C941403BA00BC00BE00C0008C
:10014000C200C400C600299AE0EDEC0FEA3008F0C6
:1001500051C00E2E000CFF0BE055FF4F0C94140302
:100160000801C8000B01E500E800EB00EE00F1001B
:10017000F400F7005C9AE8CF5D9AE6CF5B9AE4CF93
:10018000419AE2CF429AE0CF439ADECF5A9ADCCF2F
:1001900025E131E0E7ECF0E03197F1F700C0000035
:1001A000E9014991EFE9E40FE73008F045C00E2E70
:1001B000000CFF0BE252FF4F0C9414030E011001D0
:1001C00012011401160118011A012EE131E0E2CFEB
:1001D00024E231E0DFCF29E231E0DCCF2FE231E071
:1001E000D9CF25E331E0D6CF20E031E0D3CF28E0EE
:1001F00031E0D0CFC111CECFEFEBF2E13197F1F783
:1002000000C000004F5F5F4F48305105A9F721C083
:100210002EE031E0BFCF28E131E0BCCF5E98C1CF06
:100220002898BFCF2B98BDCF2D98BBCF4098B9CF82
:100230005F98B7CF2A98B5CF4111B3CFE7EFF1E17F
:100240003197F1F700C00000AB016830710509F08B
:1002500056CF4091C00047FF4FCFDF91CF91089517
:10026000CF93DF93FC0101900020E9F73197E81B61
:10027000F90B9F0121503109E80FF91FDC01AD0195
:10028000481B590B421753074CF44D915291ED0105
:1002900021975883408321503109F1CFDF91CF91CD
:1002A0000895CF93DF93CDB7DEB72B970FB6F894B1
:1002B000DEBF0FBECDBF84B7A89584B7877F84BF4C
:1002C000809160008861809360001092600004B6A5
:1002D00000FE06C081E080936A0184B78E7F84BFF0
:1002E00080917C00806480937C008EEF93E00E947C
:1002F000DF02182F80EF810F803E40F48FEF93E0F4
:100300000E94DF02181302C0109366008FE384B9C5
:100310008FE087B98CEF8AB95E9A289A2B9A2D9A2A
:10032000409A5F9A2A9A2C9A5B985D985C982998D3
:100330005A9843984298419885B78F7E85BF87B178
:100340008F7C87B988B1806388B91092C100109200
:10035000C50080E18093C40082E08093C00088E102
:100360008093C10086E08093C20085E090E022EB9C
:1003700035E026BD35BDA89BFECFA89A15BCA89533
:100380000197B9F7FE013196CE010C968F011192BB
:100390008E179F07E1F780916A01882301F189E3B5
:1003A00091E00E94530082E390E00E946500882360
:1003B000B1F38091C6008F7D823589F780E491E0AA
:1003C0000E94530060E08AEF93E00E94E7025E9A89
:1003D000289A2B9A2D9A409A5F9A2A9A2C9A8AEFF9
:1003E00093E00E94DF0281110FC06FEF8AEF93E06C
:1003F0000E94E70283E491E00E9453008091C000D4
:1004000087FD05C0A895FACF81E691E0F5CF8091F0
:10041000C60090ED980F9A3088F78983C8010E9432
:10042000780088E090E00E9465008823D1F38091F5
:10043000C6008D3011F08A3089F581E090E00E948D
:10044000650081118091C600C8010E943001C80179
:100450000E9462026B017C01C8010E943001C70149
:10046000B60122E030E040E050E00E94F502CA010F
:10047000B9012AE0A8010E948902C8010E94300146
:10048000C8010E94780088E199E00FB6F894A89519
:10049000809360000FBE90936000FFCF90ED980FA7
:1004A0009A3008F0BBCF9F8198879E819F839D8162
:1004B0009E839C819D839B819C839A819B83998150
:1004C0009A83ABCF1F93FC0199278827BC01E8943E
:1004D00011911032E9F3193010F01E30C8F31B32BD
:1004E00051F01D3249F4689406C00E949802610FD1
:1004F000711D811D911D119110531A30B0F33EF4FE
:1005000090958095709561957F4F8F4F9F4F1F916C
:100510000895BB272A3051F4992342F4BDE2909507
:100520008095709561957F4F8F4F9F4F0C94AE02D1
:10053000592F482F372F262F660F771F881F991F97
:10054000660F771F881F991F620F731F841F951FE7
:10055000660F771F881F991F0895BB27FA01A62FE2
:100560006217710581059105330B30FB66F0AA27F0
:10057000660F771F881F991FAA1FA21710F0A21BD2
:1005800063953850A9F7A05DAA3308F0A95DA1933F
:1005900036F7B111B1931082CA010C94CF02DC017D
:1005A000FC01672F71917723E1F7329704C07C91AA
:1005B0006D9370836291AE17BF07C8F30895F999E0
:1005C000FECF92BD81BDF89A992780B50895262F58
:1005D000F999FECF1FBA92BD81BD20BD0FB6F89428
:1005E000FA9AF99A0FBE01960895052E97FB1EF40C
:1005F00000940E940C0357FD07D00E941A0307FCC9
:1006000003D04EF40C940C035095409530952195F1
:100610003F4F4F4F5F4F089590958095709561952E
:100620007F4F8F4F9F4F0895EE0FFF1F0590F4915E
:10063000E02D0994A1E21A2EAA1BBB1BFD010DC0DF
:10064000AA1FBB1FEE1FFF1FA217B307E407F50782
:1006500020F0A21BB30BE40BF50B661F771F881F5E
:10066000991F1A9469F760957095809590959B01F4
:0C067000AC01BD01CF010895F894FFCF4C
:10067C0061626364656667006761626366006162FC
:10068C006364656600626300616264656700616251
:10069C006364670062636667006163646667006732
:1006AC00636465660062636100523F202020200075
:1006BC000D0A000D0A53656E6420696E74656765DA
:1006CC00723F20414B20746F207265706561742EEF
:0A06DC00000D0A416761696E00001D
:00000001FF
