:100000000C9434000C9449000C9449000C94490061
:100010000C9449000C9449000C9449000C9449003C
:100020000C9449000C9449000C9449000C9449002C
:100030000C9449000C9449000C9449000C9449001C
:100040000C9449000C9449000C9449000C9449000C
:100050000C9449000C9449000C9449000C944900FC
:100060000C9449000C94490011241FBECFEFD8E036
:10007000DEBFCDBF11E0A0E0B1E0E6EFF3E002C0EB
:1000800005900D92AC32B107D9F70E9467000C942D
:10009000F9010C9400009091C00095FFFCCF809373
:1000A000C60008950F931F93CF93DF93EC018C014B
:1000B00008531F4F8991882329F00E944B00C017D5
:1000C000D107C1F7DF91CF911F910F910895CF9381
:1000D000DF93CDB7DEB7C254D1090FB6F894DEBFB7
:1000E0000FBECDBF84B7A89584B7877F84BF8091AA
:1000F00060008861809360001092600080917C00B5
:10010000806480937C008EEF93E00E949601182F0C
:1001100080EF810F803E40F48FEF93E00E949601C4
:10012000181302C0109366008DE384B98FE087B97D
:1001300084EC8AB95E9A289A2B9A2D9A409A5F9AF3
:100140002A9A2C9A5A9843984298419885B78F7E5C
:1001500085BF3D98459A8AB1877C8AB98BB18863FF
:100160008BB92198299A1092C1001092C50080E1A4
:100170008093C40082E08093C00088E18093C10036
:1001800086E08093C2008AE090E022EB35E026BD55
:1001900035BDA89BFECFA89A15BCA8950197B9F7C5
:1001A00080E091E00E9452008E010F5F1F4FD12C22
:1001B000C12C7E0185E3E80EF11C57018091C0003F
:1001C00087FD04C0A895FACF6C01F3CF8091C600DB
:1001D000F7018D3029F081937F010E944B00EECF13
:1001E000108280E20E944B00F50120E030E0A9017E
:1001F000F190FF2091F0AAE0B0E00E94BD012F2D08
:10020000FF0C330B440B550B260F371F481F591F8C
:100210002053310941095109EBCFF8012193319362
:100220008F01C6010196232B79F688E291E00E94A6
:100230005200A980BA80FE01319681E090E03296AA
:100240008C159D0544F420813181A216B3060CF46F
:1002500059010196F4CF312C212C50E040E04E01A1
:10026000F9E28F0E911C8AE0482E512C612C712CE2
:10027000C214D30409F44FC0FE013196750190E019
:1002800080E021913191E216F30624F042175307E2
:100290000CF479010196C816D90699F7B7010F2C0D
:1002A000000C880B990B23969FAE8EAE239710E01F
:1002B00000E00F5F1F4FA30192010E949E01605D4D
:1002C0002396EEADFFAD239761932396FFAFEEAF7C
:1002D0002397B901CA0116161706180619064CF31A
:1002E000080D191DF8011082F80182918F010E94FA
:1002F0004B0080169106C1F780E20E944B0088E215
:1003000091E00E945200AE14BF0429F0FFEF2F1AB3
:100310003F0AA701ADCF88E199E00FB6F894A89500
:10032000809360000FBE90936000FFCFF999FECFDD
:1003300092BD81BDF89A992780B50895052E97FB47
:100340001EF400940E94B50157FD07D00E94C80119
:1003500007FC03D04EF40C94B501509540953095B0
:1003600021953F4F4F4F5F4F089590958095709521
:1003700061957F4F8F4F9F4F08950E94EA01A59F7F
:10038000900DB49F900DA49F800D911D1124089590
:10039000A1E21A2EAA1BBB1BFD010DC0AA1FBB1F89
:1003A000EE1FFF1FA217B307E407F50720F0A21BFB
:1003B000B30BE40BF50B661F771F881F991F1A9468
:1003C00069F760957095809590959B01AC01BD0192
:1003D000CF010895A29FB001B39FC001A39F700DEC
:1003E000811D1124911DB29F700D811D1124911D3D
:0603F0000895F894FFCF10
:1003F600456E746572206E756D62657273206174E8
:10040600206B6579626F61726420287A65726F204D
:0C041600746F2065786974290D0A0000DD
:00000001FF
