:100000000C9434000C9449000C9449000C94490061
:100010000C9449000C9449000C9449000C9449003C
:100020000C9449000C9449000C9449000C9449002C
:100030000C9449000C9449000C9449000C9449001C
:100040000C9449000C9449000C9449000C9449000C
:100050000C9449000C9449000C9449000C944900FC
:100060000C9449000C94490011241FBECFEFD8E036
:10007000DEBFCDBF11E0A0E0B1E0E6EDF1E002C0EF
:1000800005900D92A430B107D9F70E944B000C9453
:10009000E9000C94000084B7A89584B7877F84BFDB
:1000A0008091600088618093600010926000809170
:1000B0007C00806480937C008EEF93E00E94E100DE
:1000C000C82F80EF8C0F803E40F48FEF93E00E94AA
:1000D000E100C81302C0C09366008FE384B98FE0CB
:1000E00087B98CEF8AB95E9A289A2B9A2D9A409AF2
:1000F0005F9A2A9A2C9A5B985D985C9829985A98EE
:1001000043984298419885B78F7E85BF3D98459A20
:100110008AB1877C8AB98BB188638BB92198299A77
:100120001092C1001092C50080E18093C40082E06B
:100130008093C00088E18093C10086E08093C20074
:100140008AE090E022EB35E026BD35BDA89BFECFCE
:10015000A89A15BCA8950197B9F7E0E0F1E028EC62
:1001600031E08191882349F09091C00095FFFCCF48
:100170008093C6002E173F07A1F781E29091C0003F
:1001800095FFFCCF8093C600EFE3FCE93197F1F7D0
:1001900000C000008F5FA8958F3781F78091C00065
:1001A00087FD02C0A895FACF8091C60088E199E04A
:1001B0000FB6F894A895809360000FBE90936000EE
:1001C000FFCFF999FECF92BD81BDF89A992780B5EE
:0601D0000895F894FFCF32
:0401D6000D0A00000E
:00000001FF
