:100000000C9434000C9449000C9449000C94490061
:100010000C9449000C9449000C9449000C9449003C
:100020000C9449000C9449000C9449000C9449002C
:100030000C9449000C9449000C9449000C9449001C
:100040000C9449000C9449000C9449000C9449000C
:100050000C9449000C9449000C9449000C944900FC
:100060000C9449000C94490011241FBECFEFD8E036
:10007000DEBFCDBF11E0A0E0B1E0E4EAF2E002C0F3
:1000800005900D92A433B107D9F70E947D000C941E
:1000900050010C94000030E020E04091C00047FD8A
:1000A0000EC02F5F3F4FA89521344FE134071CF05D
:1000B000019730E020E0009781F780E0089581E02B
:1000C00008959091C00095FFFCCF8093C6000895DD
:1000D0000F931F93CF93DF93EC018C0108531F4FB5
:1000E0008991882329F00E946100C017D107C1F7C8
:1000F000DF91CF911F910F91089584B7A89584B790
:10010000877F84BF80916000886180936000109237
:10011000600080917C00806480937C008EEF93E08F
:100120000E944801C82F80EF8C0F803E40F48FEF73
:1001300093E00E944801C81302C0C09366008FE399
:1001400084B98FE087B98CEF8AB95E9A289A2B9A86
:100150002D9A409A5F9A2A9A2C9A5B985D985C989F
:1001600029985A9843984298419885B78F7E85BFC1
:100170003D98459A8AB1877C8AB98BB188638BB9DF
:100180002198299A1092C1001092C50080E18093B5
:10019000C40082E08093C00088E18093C10086E0C3
:1001A0008093C2008AE090E022EB35E026BD35BDA9
:1001B000A89BFECFA89A15BCA8950197B9F780E037
:1001C00091E00E94680081E490E00E944B00811160
:1001D00004C08FE30E946100F6CF89E291E00E94A3
:1001E00068008091C600D0E0C0E08AE090E00E9404
:1001F0004B00882379F18091C600982F8A3341F112
:10020000C13001F5182F1295107FCF5FCA30ACF0C6
:10021000212F012E000C330B2B5F3F4F220F331F7A
:100220004C2F0C2E000C550B4217530734F4C0FD15
:1002300020C09EEC980F963018F00E946100D5CF38
:10024000D82FD3CFC23009F720ED280F120FDDCF02
:10025000C0E0DBCF8CE291E00E94680088E199E089
:100260000FB6F894A895809360000FBE909360003D
:10027000FFCFDD2311F3813414F099EF980FD2955D
:10028000D07FD0538D2F890F0E946100D0E0ADCF79
:10029000F999FECF92BD81BDF89A992780B508954E
:0402A000F894FFCF00
:1002A4004142434445464748494A4B4C4D4E4F50C2
:1002B4005152535455565758595A0D0A53656E6442
:1002C400206865782066696C650D0A00446F6E6568
:0402D4000D0A00000F
:00000001FF
