:100000000C9434000C9451000C9451000C94510049
:100010000C9451000C9451000C9451000C9451001C
:100020000C9451000C9451000C9451000C9451000C
:100030000C9451000C9451000C9451000C945100FC
:100040000C9451000C9451000C9451000C945100EC
:100050000C9451000C9451000C9451000C945100DC
:100060000C9451000C94510011241FBECFEFD8E026
:10007000DEBFCDBF11E0A0E0B1E0EEE6F8E002C0E7
:1000800005900D92A238B107D9F721E0A2E8B1E0BE
:1000900001C01D92A338B207E1F70E945F010C94E2
:1000A00035040C940000AC0148535F4FFC012191D2
:1000B000CF01222349F03091C00035FFFCCF2093BF
:1000C000C6008417950791F7089530E020E040912D
:1000D000C00047FD0BC02F5F3F4FA89521344FE173
:1000E0003407ACF3019789F780E0089581E0089523
:1000F0000F931F93CF93DF9330E020E0DC0150E0BB
:1001000040E05B985D985C9829985A98439842988B
:1001100041985E9A289A2B9A2D9A409A5F9A2A9A29
:100120002C9A2C9ACD91D0E0C7FF02C0CF77D1E0B6
:10013000BA016F5F7F4FFA013197E730F10558F44C
:10014000EC55FF4F0C94F303C200C400C600C80076
:10015000CA00CC00CE00299AE0EDEC0FEA3008F09E
:1001600053C00E2E000CFF0BE854FF4F0C94F3030A
:100170001201D0001501EF00F200F500F800FB00BD
:10018000FE0001015C9AE8CF5D9AE6CF5B9AE4CF6E
:10019000419AE2CF429AE0CF439ADECF5A9ADCCF1F
:1001A00025E131E0EFE0FEE03197F1F700C000001B
:1001B0008901F80141918F01EFE9E40FE73008F080
:1001C00045C00E2E000CFF0BE851FF4F0C94F303BB
:1001D00018011A011C011E012001220124012EE137
:1001E00031E0E0CF24E231E0DDCF29E231E0DACFC7
:1001F0002FE231E0D7CF25E331E0D4CF20E031E06A
:10020000D1CF28E031E0CECFC111CCCFEFEBF2E17E
:100210003197F1F700C000004F5F5F4F4830510544
:10022000A9F723C02EE031E0BDCF28E131E0BACFFD
:100230005E98BFCF2898BDCF2B98BBCF2D98B9CF54
:100240004098B7CF5F98B5CF2A98B3CF4111B1CFBF
:10025000D1112C98EFEAF4E03197F1F700C00000DB
:10026000AB016830710509F04CCF4091C00047FFE9
:1002700045CFDF91CF911F910F910895CF93DF93D9
:10028000FC0101900020E9F73197E81BF90B9F0171
:1002900021503109E80FF91FDC01AD01481B590B52
:1002A000421753074CF44D915291ED012197588319
:1002B000408321503109F1CFDF91CF910895CF9341
:1002C000DF93CDB7DEB7A3970FB6F894DEBF0FBEAE
:1002D000CDBF84B7A89584B7877F84BF8091600025
:1002E0008861809360001092600004B600FE06C032
:1002F00081E08093820184B78E7F84BF80917C00EF
:10030000806480937C008EEF93E00E94AE03182FF0
:1003100080EF810F803E40F48FEF93E00E94AE03A8
:10032000181302C0109366008FE384B98FE087B979
:100330008CEF8AB95E9A289A2B9A2D9A409A5F9AE6
:100340002A9A2C9A5B985D985C9829985A984398B9
:100350004298419885B78F7E85BF87B18F7C87B9DA
:1003600088B1806388B91092C1001092C50080E105
:100370008093C40082E08093C00088E18093C10034
:1003800086E08093C20085E090E022EB35E026BD58
:1003900035BDA89BFECFA89A15BCA8950197B9F7C3
:1003A00080918201882301F189E391E00E9453004A
:1003B00082E390E00E9465008823B1F38091C6003B
:1003C0008F7D823589F785E691E00E94530060E0D9
:1003D0008AEF93E00E94B6035E9A289A2B9A2D9A90
:1003E000409A5F9A2A9A2C9A8AEF93E00E94AE0371
:1003F00081111CC06FEF8AEF93E00E94B60380E486
:1004000091E00E94530081E591E00E945300FE01BB
:100410003196CE010D968F011192E817F907E1F799
:100420008091C00087FD05C0A895FACF88E691E0CD
:10043000ECCF8091C60090ED980F9A3020F08D326D
:1004400011F08E3269F789838E3211F480EB898343
:10045000C8010E94780088E090E00E94650088232F
:10046000D1F38091C6008D3011F08A30E1F581E042
:1004700090E00E94650081118091C600C8010E9431
:1004800078008091C600C8010E943E01C8010E9408
:1004900072032B013C01812C912C5401839424E0A4
:1004A00042165104610471040CF44EC042E0C42EA3
:1004B000D12CE12CF12C4601570131E0831A91082F
:1004C000A108B108A7019601C701B6010E94C403A3
:1004D0004616570668067906BCF14FEFC41AD40ACF
:1004E000E40AF40AE8CF90ED980F9A30B0F08E321B
:1004F00041F18830A1F08D3209F0ADCF9F8198870E
:100500009E819F839D819E839C819D839B819C83F3
:100510009A819B8399819A839ACF883081F48A81CA
:1005200089838B818A838C818B838D818C838E815F
:100530008D838F818E8388858F83188689CF8E32B5
:10054000E9F68981806883CF8E01005F1F4FCE015D
:100550004F96F8011192E817F907E1F76F01C5010D
:10056000B4012EE0E22EF12C2AE030E040E050E031
:100570000E94D403605DF60162936F01F1E0EF1A0F
:10058000F108B901CA01611571058105910561F78D
:10059000F7FC19C0D80121E030E08EE090E08E1920
:1005A0009F098217930754F0F901EE0DFF1DE00F2C
:1005B000F11F40814D932F5F3F4FF3CF800F911F6D
:1005C0002EE2FC012083EBA2EFE0EE1986E1282E5B
:1005D0002E18A4E6B0E0A30192010E94F9036F8FE8
:1005E00078A389A39AA32B013C01AAE0B0E0A5015E
:1005F00094010E94F903F62FC62ED72E7C014601E6
:1006000057012FEFC21AD20AE20AF20AA701960195
:10061000C701B6010E94C4032F8D38A149A15AA178
:10062000261737074807590754F7D801AE0FB11DF1
:10063000E7FDBA958FE28F1BC80ECC92EF5FE211F7
:10064000C8CF86E1EBA18E1BF801E80FF11D87FDF5
:10065000FA951082F8018191882339F09091C000B9
:1006600095FFFCCF8093C600F6CF85E691E00E940F
:100670005300C8010E945300F80190E080E02191EE
:100680002E3299F433243A94380EF801E30DF11D1B
:1006900037FCFA958081806880833196CF01801B7A
:1006A000910B0E973CF48181F7CF01968F30910525
:1006B00031F7EBCF81E791E00E945300188EC8011B
:1006C0000E943E01C8010E9478008091C60088E126
:1006D00099E00FB6F894A895809360000FBE9093B0
:1006E0006000FFCF1F93FC0199278827BC01E89485
:1006F00011911032E9F3193010F01E30C8F31B329B
:1007000051F01D3249F4689406C00E949903610FAC
:10071000711D811D911D119110531A30B0F33EF4DB
:1007200090958095709561957F4F8F4F9F4F1F914A
:100730000895592F482F372F262F660F771F881FB0
:10074000991F660F771F881F991F620F731F841FE1
:10075000951F660F771F881F991F0895F999FECF7F
:1007600092BD81BDF89A992780B50895262FF999F1
:10077000FECF1FBA92BD81BD20BD0FB6F894FA9A84
:10078000F99A0FBE01960895DB018F939F930E9403
:10079000F903BF91AF91A29F800D911DA39F900D72
:1007A000B29F900D11240895052E97FB1EF400941E
:1007B0000E94EB0357FD07D00E94040407FC03D0FE
:1007C0004EF40C94EB0350954095309521953F4F96
:1007D0004F4F5F4F089590958095709561957F4F2D
:1007E0008F4F9F4F0895EE0FFF1F0590F491E02D5E
:1007F00009940E942604A59F900DB49F900DA49F7C
:10080000800D911D11240895A1E21A2EAA1BBB1B75
:10081000FD010DC0AA1FBB1FEE1FFF1FA217B307CC
:10082000E407F50720F0A21BB30BE40BF50B661FE2
:10083000771F881F991F1A9469F7609570958095A6
:1008400090959B01AC01BD01CF010895A29FB0011D
:10085000B39FC001A39F700D811D1124911DB29FF4
:0E086000700D811D1124911D0895F894FFCF95
:10086E006162636465666700676162636600616208
:10087E00636465660062630061626465670061625D
:10088E00636467006263666700616364666700673E
:10089E00636465660062636100523F202020200081
:1008AE000D0A456E74657220696E74656765723FD8
:1008BE00000D0A414B20746F20646973706C61796E
:1008CE0020726F6F740D0A000D0A416761696E091F
:1008DE00000D0A0D0A414B20746F20726570656120
:0208EE00740094
:00000001FF
