:1061B0000C940C310C9429310C9429310C94293114
:1061C0000C9429310C9429310C9429310C942931E7
:1061D0000C9429310C9429310C9429310C942931D7
:1061E0000C9429310C9429310C9429310C942931C7
:1061F0000C9429310C9429310C9429310C942931B7
:106200000C9429310C9429310C9429310C942931A6
:106210000C9429310C94293111241FBECFEFD8E002
:10622000DEBFCDBF11E0A0E0B1E0E2E7FAE602C0D8
:1062300005900D92A238B107D9F721E0A2E8B1E0AC
:1062400001C01D92A439B207E1F70E943A340C94C0
:1062500037350C94D8300F92FF93EF93F09186016D
:10626000E0919101049000929301EF91FF910F90C2
:1062700008954F9341E10E9458314F9108950F9234
:10628000FF93EF930F934F93F0918601E09191016B
:1062900049E00091570000FDFCCF40935700049067
:1062A000009293014F910F91EF91FF910F900895FC
:1062B0000F930091570000FDFCCF40935700E895E5
:1062C0000F91089520E030E04091C00047FD0DC0DF
:1062D0002F5F3F4F213A4FE034071CF0019720E039
:1062E00030E0009789F780E0089581E0089590916B
:1062F000C00095FFFCCF8093C60008950F931F93B5
:10630000CF93DF93EC018C0108531F4F89918823B1
:1063100029F00E947731C017D107C1F7DF91CF91E3
:106320001F910F9108958091C00087FFFCCF80914D
:10633000C600089589E191E00C947E3166BD85BD6B
:10634000A89BFECFA89A15BC089570938500609312
:1063500084009FEF96BB80938100B09BFECFB09AE4
:10636000109281000895CF93C82F82958F708A3044
:1063700010F0895C01C0805D0E9477318C2F8F7096
:106380008A3010F0895C01C0805DCF910C94773128
:10639000CF93C82F892F0E94B3318C2F0E94B33125
:1063A00083E191E0CF910C947E3182E090E00E94F5
:1063B0006231813019F48091C600F7CF08950F93B0
:1063C0001F93CF93DF93EC01CC0FDD1FD093860199
:1063D000C09391010E942B310091930110E0102F86
:1063E00000272196D0938601C09391010E942B3102
:1063F000809193019801280F311DC901DF91CF9140
:106400001F910F91089596EC980F973038F090ED0A
:10641000980F81E0973118F480E0089581E00895A5
:106420000F931F93CF93DF93EC010881802F0E947D
:10643000033281111FC01981812F0E940332811103
:1064400019C080ED800F813110F4888302C007539A
:106450000883888120E1829FC001112420ED210F53
:10646000213110F4298302C0175319832981820F27
:10647000911D02C080E090E0DF91CF911F910F91BC
:106480000895A82F362F20E0FA01E20FF11D832F87
:106490006A2F0E94ED3490839A3010F4905D01C011
:1064A000995C9083E1E0E20F832F6A2F0E94ED3424
:1064B000382F882311F02E2FE7CFCA018E0F911DA0
:1064C000FC01108280E0922F981B891760F4DA019A
:1064D000A80FB11D3C91FA01E90FF11D90819C9329
:1064E00030838F5FF0CF0895CF93DF9300D000D03B
:1064F000CDB7DEB7AE014F5F5F4F0E944132CE0194
:1065000001960E947E3183E191E00E947E310F90DE
:106510000F900F900F90DF91CF9108952F923F929F
:106520004F925F926F927F928F929F92AF92BF92A3
:10653000CF92DF92EF92FF920F931F93CF93DF934F
:1065400000D000D01F92CDB7DEB710928301109219
:106550008201809084019090850180E091E00E940A
:106560007E3180E389830E9493318A831B826DEBA5
:1065700070EF85E00E94A53181E090E00E946231D9
:10658000882329F08A8189838091C6008A830E94AA
:10659000D531CE0101960E9410328C010E94C83183
:1065A00081E191E00E947E310115110551F085E1F4
:1065B00091E00E947E310E9493318D830E94D531FB
:1065C00001C01D8266246394712CC12CD12C412CF6
:1065D000512C6AE0262E312C530181E0A81AB10813
:1065E00081149104F9F429980E949A310F900F9028
:1065F0000F900F900F90DF91CF911F910F91FF900F
:10660000EF90DF90CF90BF90AF909F908F907F9052
:106610006F905F904F903F902F9008950196A1F456
:10662000299A6701C6010E94DF3190938801809307
:10663000870176012FEFE21AF20A20918C01309146
:106640008D01E216F30651F7299880918C01909103
:106650008D01E816F90639F2C5010115110569F435
:10666000B1010E94F934892BD9F58AE20E94773171
:1066700064E685E00E949E3133C0B8010E94F9347F
:10668000892B71F50E949A31C601880F991F0E94CB
:10669000C83181E191E00E947E318FEF481A580A9B
:1066A00080918701909188012D81213309F0D6C016
:1066B000492F5527BA01605271099C013327205296
:1066C00031096F35710508F0AEC0842F2F353105C3
:1066D00008F0ADC00E947731809187010E94773128
:1066E0008091820190918301019690938301809320
:1066F0008201640181E0C81AD10828E0821A910859
:10670000C7010E94DF3190938801809387012FEFAA
:10671000E21AF20A019609F466C081E0C81AD108AB
:10672000E6FE02C0299A01C029980115110509F455
:1067300044C0C501B8010E94F934892BF1F56CED14
:1067400085E00E949E3180918701909188012D8182
:10675000213389F5492F5527BA01605271099C01EF
:106760003327205231096F35710520F02F3531055F
:1067700078F021C0842F2F35310518F40E9477312D
:1067800015C00E9477316091870180E10E947432C8
:106790002091870130918801C901992780978F3511
:1067A000910558F4632F80E10E9474328091870133
:1067B0000E94773102C00E94C8318091820190917D
:1067C00083010196909383018093820180918C01D3
:1067D00090918D01E816F90609F447C0C814D90450
:1067E00009F08ECF3EC00115110579F0C501B80141
:1067F0000E94F934892B49F4C20187709927892BAB
:1068000021F489E191E00E947E3180918C01909188
:106810008D01E816F90609F4E6CE2FEF621A720A26
:1068200046016701D9CE2F35310540F017C00E94CF
:1068300077316091870180E10E9474322091870155
:1068400030918801C901992780978F35910508F00B
:1068500047CF632F80E10E9474323ECF0E94C8313F
:106860003FCF01151105C9F2C1CF0115110509F07E
:10687000BDCFB9CE8CEF93E00E942135682F6068C0
:106880008CEF93E00E9429358BEF93E00E94213535
:10689000C82F8AEF93E00E9421352C2F30E0322F51
:1068A0002227280F311D309385012093840189EF21
:1068B00093E00E942135C82F88EF93E00E94213594
:1068C0002C2F30E0322F2227280F311D30938B01DF
:1068D00020938A018CE191E00E947E310E949331E5
:1068E000803331F50E948E320E949A3182E391E02A
:1068F0000E947E3180918A0190918B010E94C83163
:1069000084E491E00E947E31809184019091850120
:106910000E94C83184E591E00E947E31809182011D
:10692000909183010E94C8318DE591E00E947E31F3
:1069300084E691E00E947E31C0E0D0E001E010E00A
:1069400083E0E82EF12C92E0C92ED12CC230D10583
:1069500081F0C330D10591F0C130D10529F0D0923A
:106960009001C0928F010EC0F0929001E0928F01D1
:1069700009C01092900110928F0104C010939001F1
:1069800000938F0180918F01109286018093910175
:106990000E943F31809193010E94B33189E00E94AF
:1069A00077312196C430D10589F60E949A310E9430
:1069B0009A3114BE60E08AEF93E00E94293584B7D3
:1069C0008E7F84BF98E088E10FB6F894A8958093F5
:1069D00060000FBE90936000FFCF991B79E004C068
:1069E000991F961708F0961B881F7A95C9F780950E
:1069F000089597FB072E16F4009407D077FD09D071
:106A00000E940D3507FC05D03EF4909581959F4F6F
:106A10000895709561957F4F0895AA1BBB1B51E1A6
:106A200007C0AA1FBB1FA617B70710F0A61BB70BFE
:106A3000881F991F5A95A9F780959095BC01CD01A3
:106A40000895F999FECF92BD81BDF89A992780B536
:106A50000895262FF999FECF1FBA92BD81BD20BDA2
:106A60000FB6F894FA9AF99A0FBE01960895F89421
:026A7000FFCF56
:106A7200496E746567657228302D4646293F20208D
:106A82000020202000312F323F0D0A0009302074EF
:106A92006F20766572696679206F7220414F4B0DC7
:106AA2000A004865785F66696C655F73697A653A62
:106AB20009307800202064276C6F616465643A2095
:106AC2002030780020696E3A2020307800206F75DF
:106AD200740D0A00554E4F20467573657320452C80
:106AE20020482C204C20616E64206C6F636B3A0945
:026AF2000000A2
