:107000000C9434380C9451380C9451380C945138F9
:107010000C9451380C9451380C9451380C945138CC
:107020000C9451380C9451380C9451380C945138BC
:107030000C9451380C9451380C9451380C945138AC
:107040000C94893A0C9451380C94473D0C94513867
:107050000C9451380C9451380C9451380C9451388C
:107060000C9451380C94513811241FBECFEFD8E046
:10707000DEBFCDBF11E0A0E0B1E0EAEFFAE702C069
:1070800005900D92AE31B107D9F721E0AEE1B1E044
:1070900001C01D92A839B207E1F70E94EC3B0C94A5
:1070A0007B3D0C9400380F92FF93EF93F0912801F1
:1070B000E0918801049000928F01EF91FF910F9071
:1070C00008954F9341E10E949F384F9108954F9347
:1070D000FF93EF93F0912801E091880143E00E9433
:1070E0009F38EF91FF914F9108950F921F924F9308
:1070F000DF93CF93FF93EF93D0917E01C091720104
:10710000F0912801E09188010990188041E00E94E7
:107110009F38EF91FF91CF91DF914F911F900F908A
:1071200008954F93FF93EF9345E0F0912801E0918C
:1071300088010E949F38EF91FF914F9108950F931E
:107140000091570000FDFCCFF89440935700E8955C
:1071500078940F91089566BD85BDA89BFECFA89A2F
:1071600015BC08958091750190917601909322014C
:107170008093210120912601309127012823392372
:107180003093910120939001AC01421B530B50931B
:107190008B0140938A0120918A0130918B012093C9
:1071A0007701877080936B0180919201821B80939D
:1071B0002301089520917F01309180018091240165
:1071C0009091250128173907A9F3E0917F01F091EB
:1071D0008001EE0FFF1FE75DFE4F8081918190934C
:1071E0006D0180936C0180917F01909180010196E7
:1071F0009093800180937F0180917F019091800125
:107200008F7199279093800180937F010895CF9388
:10721000DF93CCE6D1E00E94DA3880918A01909128
:107220008B01880F991F9093280180918A0190917A
:107230008B01880F80938801D0937E01C0937201E7
:10724000DF91CF910C9475389C01220F331F30933E
:107250002801880F809388010E9467380E94913826
:1072600010928E010895CF93C1E080911E01882372
:1072700009F450C080911E01815080931E01C0937B
:107280008E010E94073980918A0190918B010196AD
:1072900090938B0180938A0180912101909122012A
:1072A00001969093220180932101809123018150C6
:1072B0008093230180911F0190912001019690936A
:1072C000200180931F0120918A0130918B018091D0
:1072D0009201909193012817390739F68091900116
:1072E000909191010E94243910928E0110928B018D
:1072F00010928A01809192018093230180916B0109
:107300008093770180916B01882309F4AECFC093FD
:107310008101ABCFCF910895CF93DF93D82FC62FA4
:1073200064E685E00E94AB38E1ECF0E01082D09397
:10733000C500C093C40082E08093C00088E18083D0
:1073400086E08093C200DF91CF91089520E030E085
:107350004091C00047FD0DC02F5F3F4F213A4FE0E5
:1073600034071CF0019720E030E0009789F780E0B7
:10737000089581E008959091C00095FFFCCF80931F
:10738000C600089520917F013091800180912401F1
:107390009091250128173907A9F3E0917F01F09119
:1073A0008001EE0FFF1FE75DFE4F80818093830118
:1073B00020917F01309180012F5F3F4F30938001FA
:1073C00020937F0120917F01309180012F7133271D
:1073D0003093800120937F01982F87FF02C091E0B6
:1073E000980F959590931E0190918C0190311CF40B
:1073F00091E090938D0180938C0120917F013091D9
:107400008001809124019091250128173907A9F363
:10741000E0917F01F0918001EE0FFF1FE75DFE4FCD
:107420003081218180917F0190918001019690931C
:10743000800180937F0180917F01909180018F7105
:1074400099279093800180937F01832F922F97FD3E
:10745000019695958795909376018093750120917B
:10746000790130917A012F5F3F4F30937A01209359
:10747000790140912101509122018417950751F122
:10748000009751F1409126015091270184239523C3
:1074900060919001709191014091920150919301FE
:1074A000460F571F4817590734F441E040936A01CB
:1074B0001092890108C08417950729F410926A0177
:1074C00041E0409389018617970731F410926A01D1
:1074D000109289011092810127703327232B19F410
:1074E0008AE20C94BB3908950F931F93CF93DF93D7
:1074F000EC018C0108531F4F8991882329F00E94C9
:10750000BB39C017D107C1F7DF91CF911F910F9100
:1075100008951F920F920FB60F9211248F939F938D
:10752000EF93FF9380918201833009F045C08091F1
:107530007B01815080937B0115BC80916E008E7F12
:1075400080936E0080912401909125010196909383
:1075500025018093240180912401909125018F7150
:1075600099279093250180932401E0912401F091C3
:107570002501EE0FFF1FE75DFE4F11821082809103
:107580002401909125010196909325018093240177
:1075900080912401909125018F7199279093250165
:1075A00080932401E0912401F0912501EE0FFF1F4B
:1075B000E75DFE4F11821082FF91EF919F918F91B5
:1075C0000F900FBE0F901F90189580E490E090935D
:1075D00093018093920180EC9FE390932701809325
:1075E000260110927A011092790110928C0110926A
:1075F000200110921F0110928E0110922201109210
:10760000210110926A0110928101109225011092BD
:1076100024011092800110927F0110928D0110922E
:107620007D0110927C0180E091E00E94743A80918B
:10763000C10080688093C10078940E94C2390E9482
:10764000B2380E9433390E94C23980918301882365
:1076500009F479C080917501909176012091210102
:10766000309122018217930739F520918D01222351
:1076700039F0213009F50E94B23810928D011CC0FA
:1076800060916B0140912301042E000C550B209159
:10769000920130919301261B310967FD3395421702
:1076A000530751F42091260130912701822393231F
:1076B0009093910180939001209175013091760112
:1076C00080912101909122012817390709F4B9CF3F
:1076D00080916A018823F1F080918E01882351F016
:1076E00080918101811106C080919001909191015A
:1076F0000E94243980918101882361F020919001BA
:10770000309191018091920190919301820F931F8A
:107710000E94243980918901882381F080918E0113
:10772000882351F080918101811106C080919001E0
:10773000909191010E942439109281010E94B238E7
:1077400010928D017ECF8091C1008F778093C10010
:10775000F894289885E090E00E94A639813019F4C9
:107760008091C600F7CF80918E01882351F08091DF
:107770008101811106C080919001909191010E9438
:10778000243980918101882361F02091900130910A
:1077900091018091920190919301820F931F0E9419
:1077A0002439F8940E946138609120018BEF93E0B6
:1077B0000E946D3D60911F018AEF93E00E946D3D34
:1077C00060917D0189EF93E00E946D3D60917C01A5
:1077D00088EF93E00C946D3D04B601FC02C00C945C
:1077E000000081E085BF82E085BFA89584B7877FD0
:1077F00084BF809160008861809360001092600077
:1078000085B78F7E85BF14B817B81AB88FEF85B9C2
:1078100088B98BB980917C00806480937C0060E1A2
:1078200080E00E948C390E94E53A0C94D83081E0C7
:1078300090E008958A3331F410928501109284010A
:1078400080E005C08A3310F4805301C08753209133
:1078500084013091850123303105B9F1F4F42130F0
:10786000310571F12230310509F069C02091940190
:1078700030919501280F311D30939501209394018B
:107880002091940130919501220F331F275F3F4FC4
:1078900030936F0120936E013CC02530310579F1A2
:1078A000ECF02630310509F04AC020919401309166
:1078B0009501280F311D309395012093940129C023
:1078C00040E1849F9001112404C050E1859F900104
:1078D0001124309395012093940131C0209194019B
:1078E00030919501280F311D30939501209394011B
:1078F0002091940130919501322F2227EACF2091D7
:1079000094013091950190E1899F200D311D112442
:10791000E0CF2091240130912501A9014F5F5F4FF5
:107920005093250140932401409194015091950179
:10793000220F331FF901E75DFE4F518340832091F1
:10794000840130918501293031050CF48CC04091BF
:1079500084015091850120916E0130916F01421791
:1079600053070CF080C02091840130918501237071
:1079700033272130310541F440E1849F90011124E7
:1079800030939501209394012091840130918501D9
:10799000237033272230310551F420919401309126
:1079A0009501280F311D309395012093940120916A
:1079B000840130918501237033272330310541F450
:1079C00050E1859F9001112430937401209373013D
:1079D000209184013091850123703327232B09F0F6
:1079E00042C02091730130917401A901480F511DCB
:1079F00050937401409373018091730190917401CD
:107A0000982F8827909374018093730120917301BC
:107A1000309174018091940190919501820F931F90
:107A20009093950180939401809124019091250178
:107A30009C012F5F3F4F309325012093240120911B
:107A4000940130919501880F991FFC01E75DFE4F6D
:107A50003183208380917C0190917D0101969093E8
:107A60007D0180937C018091840190918501019634
:107A70009093850180938401809124019091250148
:107A80008F719927909325018093240108951F9267
:107A90000F920FB60F9211242F933F934F935F9342
:107AA0006F937F938F939F93AF93BF93EF93FF93C6
:107AB0008091C6000E941A3CFF91EF91BF91AF9157
:107AC0009F918F917F916F915F914F913F912F91F6
:107AD0000F900FBE0F901F901895262FF999FECF8B
:107AE0001FBA92BD81BD20BD0FB6F894FA9AF99ADB
:0A7AF0000FBE01960895F894FFCF31
:107AFA000D0A53656E6420554E4F202841746D65FA
:0E7B0A00676133323829204865785F463F00B6
:00000001FF
