:107000000C9434380C9451380C9451380C945138F9
:107010000C9451380C9451380C9451380C945138CC
:107020000C9451380C9451380C9451380C945138BC
:107030000C9451380C9451380C9451380C945138AC
:107040000C9451380C9451380C94B73A0C94513834
:107050000C9451380C9451380C9451380C9451388C
:107060000C9451380C94513811241FBECFEFD8E046
:10707000DEBFCDBF11E0A0E0B1E0ECE0FDE702C073
:1070800005900D92A039B107D9F722E0A0E9B1E04F
:1070900001C01D92A930B207E1F70E94393D0C945E
:1070A000843E0C9400380F92FF93EF93F0919D0172
:1070B000E091FA01049000920002EF91FF910F908D
:1070C00008954F9341E10E949F384F9108954F9347
:1070D000FF93EF93F0919D01E091FA0143E00E944C
:1070E0009F38EF91FF914F9108950F921F924F9308
:1070F000DF93CF93FF93EF93D091EF01C091E6011F
:10710000F0919D01E091FA010990188041E00E9400
:107110009F38EF91FF91CF91DF914F911F900F908A
:1071200008954F93FF93EF9345E0F0919D01E09117
:10713000FA010E949F38EF91FF914F9108950F93AC
:107140000091570000FDFCCFF89440935700E8955C
:1071500078940F9108950F92FF93EF930F934F93AD
:10716000F0919D01E091FA0149E00091570000FD86
:10717000FCCF409357000490009200024F910F9172
:10718000EF91FF910F9008952091F0013091F1015E
:107190008091990190919A0128173907A9F3E091FC
:1071A000F001F091F101EE0FFF1FE256FE4F8081DA
:1071B0008093F5012091F0013091F1012F5F3F4F55
:1071C0003093F1012093F0012091F0013091F10111
:1071D0002F7133273093F1012093F001982F87FF0F
:1071E00002C091E0980F9595909392019091FD01C6
:1071F00090311CF491E09093FE018093FD01209169
:10720000F0013091F1018091990190919A01281734
:107210003907A9F3E091F001F091F101EE0FFF1FA2
:10722000E256FE4F308121818091F0019091F10171
:1072300001969093F1018093F0018091F00190917B
:10724000F1018F7199279093F1018093F001832FC1
:10725000922F97FD0196959587959093EA018093DB
:10726000E90120919501309196018217930711F45D
:107270001092F20108958091E9019091EA019093B2
:1072800096018093950120919B0130919C012823C8
:1072900039233093020220930102AC01421B530BAD
:1072A0005093FC014093FB012091FB013091FC01C4
:1072B0002093EB0187708093DF0180910302821B92
:1072C0008093970108952091F0013091F101809110
:1072D000990190919A0128173907A9F3E091F001DB
:1072E000F091F101EE0FFF1FE256FE4F8081918178
:1072F0009093E1018093E0018091F0019091F10180
:1073000001969093F1018093F0018091F0019091AA
:10731000F1018F7199279093F1018093F001089505
:10732000CF93DF93C0EED1E00E9463398091FB01DF
:107330009091FC01880F991F90939D018091FB0112
:107340009091FC01880F8093FA01D093EF01C093D4
:10735000E601DF91CF910C9475389C01220F331F09
:1073600030939D01880F8093FA010E9467380E9434
:1073700091381092FF0108950F931F93CF93DF93DD
:10738000EC01CC0FDD1FD0939D01C093FA010E9448
:1073900053380091000210E0102F00272196D0935F
:1073A0009D01C093FA010E94533880910002980118
:1073B000280F311DC901DF91CF911F910F910895C1
:1073C00066BD85BDA89BFECFA89A15BC0895709395
:1073D0008500609384009FEF96BB80938100B09BF3
:1073E000FECFB09A109281000895CF93DF93D82FEB
:1073F000C62F64E685E00E94E039E1ECF0E01082FF
:10740000D093C500C093C40082E08093C00088E19F
:10741000808386E08093C200DF91CF91089520E0C1
:1074200030E04091C00047FD0DC02F5F3F4F213A33
:107430004FE034071CF0019720E030E0009789F717
:1074400080E0089581E008959091C00095FFFCCF01
:107450008093C6000895CF93C1E080919201882364
:1074600009F44AC080919201815080939201C093A7
:10747000FF010E9490398091FB019091FC010196DF
:107480009093FC018093FB0180919501909196016E
:107490000196909396018093950180919701815078
:1074A000809397012091FB013091FC0180910302B0
:1074B000909104022817390781F68AE20E94243A43
:1074C00080910102909102020E94AD391092FF0159
:1074D0001092FC011092FB018091030280939701AE
:1074E0008091DF018093EB018091DF01882309F413
:1074F000B4CFC093F201B1CFCF910895CF93C82FED
:1075000082958F708A3010F0895C01C0805D0E9486
:10751000243A8C2F8F708A3010F0895C01C0805D16
:10752000CF910C94243ACF93DF93EC018991882377
:1075300019F00E94243AFACFDF91CF910895CF93AA
:10754000C82F892F0E947E3A8C2F0E947E3A8CE6AB
:1075500091E0CF910C94933A8FE691E00C94933A9A
:107560008091C00087FFFCCF8091C60008951F92D4
:107570000F920FB60F9211242F933F934F935F9367
:107580008F939F93EF93FF938091C6008A3331F4DA
:107590001092F7011092F60180E005C08A3310F4D2
:1075A000805301C087532091F6013091F7012330B9
:1075B0003105B9F1F4F42130310571F12230310592
:1075C00009F069C02091050230910602280F311D93
:1075D00030930602209305022091050230910602A5
:1075E000220F331F275F3F4F3093E3012093E201C7
:1075F0003CC02530310579F1ECF02630310509F039
:107600004AC02091050230910602280F311D3093A7
:1076100006022093050229C040E1849F90011124B5
:1076200004C050E1859F90011124309306022093FD
:10763000050231C02091050230910602280F311D4C
:107640003093060220930502209105023091060234
:10765000322F2227EACF209105023091060290E1D5
:10766000899F200D311D1124E0CF20919901309187
:107670009A01A9014F5F5F4F50939A01409399017E
:107680004091050250910602220F331FF901E25684
:10769000FE4F518340832091F6013091F70129304C
:1076A00031050CF482C04091F6015091F701209110
:1076B000E2013091E301421753070CF076C02091AC
:1076C000F6013091F701237033272130310541F461
:1076D00040E1849F9001112430930602209305021B
:1076E0002091F6013091F7012370332722303105C4
:1076F00051F42091050230910602280F311D30937C
:107700000602209305022091F6013091F7012370C3
:1077100033272330310541F450E1859F9001112436
:107720003093E8012093E7012091F6013091F701B1
:1077300023703327232BC9F52091E7013091E8010D
:10774000A901480F511D5093E8014093E701809132
:10775000E7019091E801982F88279093E8018093A2
:10776000E7012091E7013091E801809105029091B5
:107770000602820F931F9093060280930502809168
:10778000990190919A019C012F5F3F4F30939A018C
:10779000209399012091050230910602880F991FCC
:1077A000FC01E256FE4F318320838091F6019091D7
:1077B000F70101969093F7018093F601809199016A
:1077C00090919A018F71992790939A0180939901D2
:1077D000FF91EF919F918F915F914F913F912F91E9
:1077E0000F900FBE0F901F9018955F926F927F922F
:1077F0008F929F92AF92BF92CF92DF92EF92FF92C1
:107800000F931F93CF93DF93582E109291011092F4
:1078100090010091930110919401CC24C394D12C38
:10782000C0E0D0E0E12CF12C4AE0642E712C56012E
:1078300021E0A21AB108101611068CF0DF91CF9149
:107840001F910F91FF90EF90DF90CF90BF90AF907E
:107850009F908F907F906F905F900C94AC3ACE0188
:107860000E94BC399093E1018093E0014E018FEFBB
:10787000881A980A552071F0C501B3010E94463E4E
:10788000892B19F48AE20E94243A6CED85E00E946B
:10789000E03914C00E94AC3ACE01880F991F0E94B3
:1078A0009F3A8AE691E00E94933A2FEFE21AF20A99
:1078B0008091E0019091E1010E949F3A80919001B6
:1078C00090919101019690939101809390010150C4
:1078D00011095E0188E0A80EB11CE401CE010E94EE
:1078E000BC399093E1018093E0012196019611F15A
:1078F0000150110951100AC06CED85E00E94E03979
:107900008091E0019091E1010E949F3A8091900165
:1079100090919101019690939101809390018091B3
:10792000000190910101C817D9072CF5CA15DB0594
:10793000A9F61EC0511009C0C70187709927892B6D
:1079400021F48FE691E00E94933A8091000190919A
:107950000101C817D9070CF071CF8FEFC81AD80AE8
:107960008091E0019091E101019609F060CF66CF2E
:107970005110F3CFE1CF5520F9F260CFCF92DF92D3
:10798000EF92FF920F931F93CF93DF9382E091E0EA
:107990000E94933A62E67EE983E00E94E739809193
:1079A000C10080618093C1000E94B03A803361F4CD
:1079B0000E94AC3ADF91CF911F910F91FF90EF9011
:1079C000DF90CF900C94AC3A2091000130910101EE
:1079D000309394012093930181530E94F53B89E3F6
:1079E00091E00E94933A8091900190919101880FCB
:1079F000991F0E949F3A8BE491E00E94933AC0E065
:107A0000D0E001E010E033E0E32EF12C42E0C42EA0
:107A1000D12CC230D10581F0C330D10591F0C130F5
:107A2000D10529F0D092F901C092F8010EC0F09270
:107A3000F901E092F80109C01092F9011092F801E1
:107A400004C01093F9010093F8018091F80110929D
:107A50009D018093FA010E94AB38809100020E9440
:107A60007E3A89E00E94243A2196C430D10589F6F5
:107A70009FCF04B601FC02C00C94000084B78D7F38
:107A800084BF04B603FE03C081E080939801A895EB
:107A900084B7877F84BF8091600088618093600095
:107AA0001092600080917C00806480937C006091E3
:107AB00066008DEF91E00E94763E8EEF91E00E948D
:107AC0006E3EC82F80EF8C0F803E40F48FEF91E028
:107AD0000E946E3EC81302C0C093660085B78F7EB9
:107AE00085BF14B817B81AB88FEF85B988B98BB9A4
:107AF00060E180E00E94F53985E600008150E9F7F9
:107B000086E691E00E94933A8AEF90E00E940F3A55
:107B10008823B1F38091C6008093F301803779F018
:107B2000823741F46BEF8FEE91E00E94763E0C9429
:107B3000000005C08EE691E00E94933AE1CF80916B
:107B4000F3018037E9F682E791E00E94933A81E001
:107B500085BF82E085BF80E490E09093040280932B
:107B6000030280EC9FE390939C0180939B01109211
:107B7000FD011092FF011092960110929501109252
:107B80009A01109299011092F1011092F001109255
:107B9000FE018091C10080688093C10078940E94AA
:107BA000C4380E943B390E942B3A0E94C43880910D
:107BB000F501882361F18091FE01882339F081303D
:107BC00091F70E943B391092FE01EDCF4091DF0109
:107BD00020919701022E000C330B809103029091AB
:107BE0000402841B910947FD939528173907D9F69C
:107BF0002091E9013091EA0180919B0190919C01D3
:107C0000822393239093020280930102CCCF809130
:107C1000C1008F778093C100F8948091C1008F7E5E
:107C20008093C1005098589A6CED85E00E94E0392D
:107C30008091FF01882351F08091F201811106C0EB
:107C400080910102909102020E94AD398091F2016F
:107C5000882361F020910102309102028091030299
:107C600090910402820F931F0E94AD39F8940E94F4
:107C700061380E94BE3C98E088E10FB6F894A89560
:107C8000809360000FBE90936000FFCF97FB072E9C
:107C900016F4009407D077FD09D00E945A3E07FCE5
:107CA00005D03EF4909581959F4F0895709561950C
:107CB0007F4F0895AA1BBB1B51E107C0AA1FBB1F22
:107CC000A617B70710F0A61BB70B881F991F5A9568
:107CD000A9F780959095BC01CD010895F999FECF43
:107CE00092BD81BDF89A992780B50895262FF999FC
:107CF000FECF1FBA92BD81BD20BD0FB6F894FA9A8F
:0C7D0000F99A0FBE01960895F894FFCF89
:107D0C0000180D0A566572696669636174696F6E55
:107D1C003A203020746F20736B69702C20312066F0
:107D2C006F722066756C6C206F72203220666F72D9
:107D3C002062617369630D0A004865785F66696C3F
:107D4C00655F73697A653A093078000D0A46757378
:107D5C00657320452C20482C204C20616E64206CCF
:107D6C006F636B3A0900702F7220202020003F0DAA
:107D7C000A000D0A53656E645F41746D656761207E
:107D8C00333238204865782066696C650D0A00002E
:00000001FF
